{
  "contractName": "MyNFT",
  "abi": [
    {
      "inputs": [],
      "stateMutability": "nonpayable",
      "type": "constructor"
    },
    {
      "anonymous": false,
      "inputs": [
        {
          "indexed": true,
          "internalType": "address",
          "name": "owner",
          "type": "address"
        },
        {
          "indexed": true,
          "internalType": "address",
          "name": "approved",
          "type": "address"
        },
        {
          "indexed": true,
          "internalType": "uint256",
          "name": "tokenId",
          "type": "uint256"
        }
      ],
      "name": "Approval",
      "type": "event"
    },
    {
      "anonymous": false,
      "inputs": [
        {
          "indexed": true,
          "internalType": "address",
          "name": "owner",
          "type": "address"
        },
        {
          "indexed": true,
          "internalType": "address",
          "name": "operator",
          "type": "address"
        },
        {
          "indexed": false,
          "internalType": "bool",
          "name": "approved",
          "type": "bool"
        }
      ],
      "name": "ApprovalForAll",
      "type": "event"
    },
    {
      "anonymous": false,
      "inputs": [
        {
          "indexed": true,
          "internalType": "address",
          "name": "previousOwner",
          "type": "address"
        },
        {
          "indexed": true,
          "internalType": "address",
          "name": "newOwner",
          "type": "address"
        }
      ],
      "name": "OwnershipTransferred",
      "type": "event"
    },
    {
      "anonymous": false,
      "inputs": [
        {
          "indexed": true,
          "internalType": "address",
          "name": "from",
          "type": "address"
        },
        {
          "indexed": true,
          "internalType": "address",
          "name": "to",
          "type": "address"
        },
        {
          "indexed": true,
          "internalType": "uint256",
          "name": "tokenId",
          "type": "uint256"
        }
      ],
      "name": "Transfer",
      "type": "event"
    },
    {
      "inputs": [
        {
          "internalType": "address",
          "name": "to",
          "type": "address"
        },
        {
          "internalType": "uint256",
          "name": "tokenId",
          "type": "uint256"
        }
      ],
      "name": "approve",
      "outputs": [],
      "stateMutability": "nonpayable",
      "type": "function"
    },
    {
      "inputs": [
        {
          "internalType": "address",
          "name": "owner",
          "type": "address"
        }
      ],
      "name": "balanceOf",
      "outputs": [
        {
          "internalType": "uint256",
          "name": "",
          "type": "uint256"
        }
      ],
      "stateMutability": "view",
      "type": "function",
      "constant": true
    },
    {
      "inputs": [
        {
          "internalType": "uint256",
          "name": "tokenId",
          "type": "uint256"
        }
      ],
      "name": "getApproved",
      "outputs": [
        {
          "internalType": "address",
          "name": "",
          "type": "address"
        }
      ],
      "stateMutability": "view",
      "type": "function",
      "constant": true
    },
    {
      "inputs": [
        {
          "internalType": "address",
          "name": "owner",
          "type": "address"
        },
        {
          "internalType": "address",
          "name": "operator",
          "type": "address"
        }
      ],
      "name": "isApprovedForAll",
      "outputs": [
        {
          "internalType": "bool",
          "name": "",
          "type": "bool"
        }
      ],
      "stateMutability": "view",
      "type": "function",
      "constant": true
    },
    {
      "inputs": [],
      "name": "name",
      "outputs": [
        {
          "internalType": "string",
          "name": "",
          "type": "string"
        }
      ],
      "stateMutability": "view",
      "type": "function",
      "constant": true
    },
    {
      "inputs": [],
      "name": "owner",
      "outputs": [
        {
          "internalType": "address",
          "name": "",
          "type": "address"
        }
      ],
      "stateMutability": "view",
      "type": "function",
      "constant": true
    },
    {
      "inputs": [
        {
          "internalType": "uint256",
          "name": "tokenId",
          "type": "uint256"
        }
      ],
      "name": "ownerOf",
      "outputs": [
        {
          "internalType": "address",
          "name": "",
          "type": "address"
        }
      ],
      "stateMutability": "view",
      "type": "function",
      "constant": true
    },
    {
      "inputs": [],
      "name": "renounceOwnership",
      "outputs": [],
      "stateMutability": "nonpayable",
      "type": "function"
    },
    {
      "inputs": [
        {
          "internalType": "address",
          "name": "from",
          "type": "address"
        },
        {
          "internalType": "address",
          "name": "to",
          "type": "address"
        },
        {
          "internalType": "uint256",
          "name": "tokenId",
          "type": "uint256"
        }
      ],
      "name": "safeTransferFrom",
      "outputs": [],
      "stateMutability": "nonpayable",
      "type": "function"
    },
    {
      "inputs": [
        {
          "internalType": "address",
          "name": "from",
          "type": "address"
        },
        {
          "internalType": "address",
          "name": "to",
          "type": "address"
        },
        {
          "internalType": "uint256",
          "name": "tokenId",
          "type": "uint256"
        },
        {
          "internalType": "bytes",
          "name": "_data",
          "type": "bytes"
        }
      ],
      "name": "safeTransferFrom",
      "outputs": [],
      "stateMutability": "nonpayable",
      "type": "function"
    },
    {
      "inputs": [
        {
          "internalType": "address",
          "name": "operator",
          "type": "address"
        },
        {
          "internalType": "bool",
          "name": "approved",
          "type": "bool"
        }
      ],
      "name": "setApprovalForAll",
      "outputs": [],
      "stateMutability": "nonpayable",
      "type": "function"
    },
    {
      "inputs": [],
      "name": "symbol",
      "outputs": [
        {
          "internalType": "string",
          "name": "",
          "type": "string"
        }
      ],
      "stateMutability": "view",
      "type": "function",
      "constant": true
    },
    {
      "inputs": [
        {
          "internalType": "uint256",
          "name": "index",
          "type": "uint256"
        }
      ],
      "name": "tokenByIndex",
      "outputs": [
        {
          "internalType": "uint256",
          "name": "",
          "type": "uint256"
        }
      ],
      "stateMutability": "view",
      "type": "function",
      "constant": true
    },
    {
      "inputs": [
        {
          "internalType": "address",
          "name": "owner",
          "type": "address"
        },
        {
          "internalType": "uint256",
          "name": "index",
          "type": "uint256"
        }
      ],
      "name": "tokenOfOwnerByIndex",
      "outputs": [
        {
          "internalType": "uint256",
          "name": "",
          "type": "uint256"
        }
      ],
      "stateMutability": "view",
      "type": "function",
      "constant": true
    },
    {
      "inputs": [],
      "name": "totalSupply",
      "outputs": [
        {
          "internalType": "uint256",
          "name": "",
          "type": "uint256"
        }
      ],
      "stateMutability": "view",
      "type": "function",
      "constant": true
    },
    {
      "inputs": [
        {
          "internalType": "address",
          "name": "from",
          "type": "address"
        },
        {
          "internalType": "address",
          "name": "to",
          "type": "address"
        },
        {
          "internalType": "uint256",
          "name": "tokenId",
          "type": "uint256"
        }
      ],
      "name": "transferFrom",
      "outputs": [],
      "stateMutability": "nonpayable",
      "type": "function"
    },
    {
      "inputs": [
        {
          "internalType": "address",
          "name": "newOwner",
          "type": "address"
        }
      ],
      "name": "transferOwnership",
      "outputs": [],
      "stateMutability": "nonpayable",
      "type": "function"
    },
    {
      "inputs": [
        {
          "internalType": "address",
          "name": "to",
          "type": "address"
        },
        {
          "internalType": "string",
          "name": "uri",
          "type": "string"
        }
      ],
      "name": "safeMint",
      "outputs": [],
      "stateMutability": "nonpayable",
      "type": "function"
    },
    {
      "inputs": [
        {
          "internalType": "uint256",
          "name": "tokenId",
          "type": "uint256"
        }
      ],
      "name": "tokenURI",
      "outputs": [
        {
          "internalType": "string",
          "name": "",
          "type": "string"
        }
      ],
      "stateMutability": "view",
      "type": "function",
      "constant": true
    },
    {
      "inputs": [
        {
          "internalType": "bytes4",
          "name": "interfaceId",
          "type": "bytes4"
        }
      ],
      "name": "supportsInterface",
      "outputs": [
        {
          "internalType": "bool",
          "name": "",
          "type": "bool"
        }
      ],
      "stateMutability": "view",
      "type": "function",
      "constant": true
    }
  ],
  "bytecode": "0x608060405234801562000010575f80fd5b506040518060400160405280600581526020017f4d794e46540000000000000000000000000000000000000000000000000000008152506040518060400160405280600481526020017f4d4e465400000000000000000000000000000000000000000000000000000000815250815f90816200008d9190620003f6565b5080600190816200009f9190620003f6565b505050620000c2620000b6620000c860201b60201c565b620000cf60201b60201c565b620004da565b5f33905090565b5f600b5f9054906101000a900473ffffffffffffffffffffffffffffffffffffffff16905081600b5f6101000a81548173ffffffffffffffffffffffffffffffffffffffff021916908373ffffffffffffffffffffffffffffffffffffffff1602179055508173ffffffffffffffffffffffffffffffffffffffff168173ffffffffffffffffffffffffffffffffffffffff167f8be0079c531659141344cd1fd0a4f28419497f9722a3daafe3b4186f6b6457e060405160405180910390a35050565b5f81519050919050565b7f4e487b71000000000000000000000000000000000000000000000000000000005f52604160045260245ffd5b7f4e487b71000000000000000000000000000000000000000000000000000000005f52602260045260245ffd5b5f60028204905060018216806200020e57607f821691505b602082108103620002245762000223620001c9565b5b50919050565b5f819050815f5260205f209050919050565b5f6020601f8301049050919050565b5f82821b905092915050565b5f60088302620002887fffffffffffffffffffffffffffffffffffffffffffffffffffffffffffffffff826200024b565b6200029486836200024b565b95508019841693508086168417925050509392505050565b5f819050919050565b5f819050919050565b5f620002de620002d8620002d284620002ac565b620002b5565b620002ac565b9050919050565b5f819050919050565b620002f983620002be565b620003116200030882620002e5565b84845462000257565b825550505050565b5f90565b6200032762000319565b62000334818484620002ee565b505050565b5b818110156200035b576200034f5f826200031d565b6001810190506200033a565b5050565b601f821115620003aa5762000374816200022a565b6200037f846200023c565b810160208510156200038f578190505b620003a76200039e856200023c565b83018262000339565b50505b505050565b5f82821c905092915050565b5f620003cc5f1984600802620003af565b1980831691505092915050565b5f620003e68383620003bb565b9150826002028217905092915050565b620004018262000192565b67ffffffffffffffff8111156200041d576200041c6200019c565b5b620004298254620001f6565b620004368282856200035f565b5f60209050601f8311600181146200046c575f841562000457578287015190505b620004638582620003d9565b865550620004d2565b601f1984166200047c866200022a565b5f5b82811015620004a5578489015182556001820191506020850194506020810190506200047e565b86831015620004c55784890151620004c1601f891682620003bb565b8355505b6001600288020188555050505b505050505050565b61388080620004e85f395ff3fe608060405234801561000f575f80fd5b506004361061012a575f3560e01c806370a08231116100ab578063b88d4fde1161006f578063b88d4fde14610340578063c87b56dd1461035c578063d204c45e1461038c578063e985e9c5146103a8578063f2fde38b146103d85761012a565b806370a08231146102ae578063715018a6146102de5780638da5cb5b146102e857806395d89b4114610306578063a22cb465146103245761012a565b806323b872dd116100f257806323b872dd146101e65780632f745c591461020257806342842e0e146102325780634f6ccce71461024e5780636352211e1461027e5761012a565b806301ffc9a71461012e57806306fdde031461015e578063081812fc1461017c578063095ea7b3146101ac57806318160ddd146101c8575b5f80fd5b610148600480360381019061014391906121f5565b6103f4565b604051610155919061223a565b60405180910390f35b610166610405565b60405161017391906122dd565b60405180910390f35b61019660048036038101906101919190612330565b610494565b6040516101a3919061239a565b60405180910390f35b6101c660048036038101906101c191906123dd565b610515565b005b6101d061062b565b6040516101dd919061242a565b60405180910390f35b61020060048036038101906101fb9190612443565b610637565b005b61021c600480360381019061021791906123dd565b610697565b604051610229919061242a565b60405180910390f35b61024c60048036038101906102479190612443565b610737565b005b61026860048036038101906102639190612330565b610756565b604051610275919061242a565b60405180910390f35b61029860048036038101906102939190612330565b6107c4565b6040516102a5919061239a565b60405180910390f35b6102c860048036038101906102c39190612493565b610870565b6040516102d5919061242a565b60405180910390f35b6102e6610924565b005b6102f06109ab565b6040516102fd919061239a565b60405180910390f35b61030e6109d3565b60405161031b91906122dd565b60405180910390f35b61033e600480360381019061033991906124e8565b610a63565b005b61035a60048036038101906103559190612652565b610a79565b005b61037660048036038101906103719190612330565b610adb565b60405161038391906122dd565b60405180910390f35b6103a660048036038101906103a19190612770565b610aed565b005b6103c260048036038101906103bd91906127ca565b610b99565b6040516103cf919061223a565b60405180910390f35b6103f260048036038101906103ed9190612493565b610c27565b005b5f6103fe82610d1d565b9050919050565b60605f805461041390612835565b80601f016020809104026020016040519081016040528092919081815260200182805461043f90612835565b801561048a5780601f106104615761010080835404028352916020019161048a565b820191905f5260205f20905b81548152906001019060200180831161046d57829003601f168201915b5050505050905090565b5f61049e82610d96565b6104dd576040517f08c379a00000000000000000000000000000000000000000000000000000000081526004016104d4906128d5565b60405180910390fd5b60045f8381526020019081526020015f205f9054906101000a900473ffffffffffffffffffffffffffffffffffffffff169050919050565b5f61051f826107c4565b90508073ffffffffffffffffffffffffffffffffffffffff168373ffffffffffffffffffffffffffffffffffffffff160361058f576040517f08c379a000000000000000000000000000000000000000000000000000000000815260040161058690612963565b60405180910390fd5b8073ffffffffffffffffffffffffffffffffffffffff166105ae610dfe565b73ffffffffffffffffffffffffffffffffffffffff1614806105dd57506105dc816105d7610dfe565b610b99565b5b61061c576040517f08c379a0000000000000000000000000000000000000000000000000000000008152600401610613906129f1565b60405180910390fd5b6106268383610e05565b505050565b5f600880549050905090565b610648610642610dfe565b82610ebb565b610687576040517f08c379a000000000000000000000000000000000000000000000000000000000815260040161067e90612a7f565b60405180910390fd5b610692838383610f97565b505050565b5f6106a183610870565b82106106e2576040517f08c379a00000000000000000000000000000000000000000000000000000000081526004016106d990612b0d565b60405180910390fd5b60065f8473ffffffffffffffffffffffffffffffffffffffff1673ffffffffffffffffffffffffffffffffffffffff1681526020019081526020015f205f8381526020019081526020015f2054905092915050565b61075183838360405180602001604052805f815250610a79565b505050565b5f61075f61062b565b82106107a0576040517f08c379a000000000000000000000000000000000000000000000000000000000815260040161079790612b9b565b60405180910390fd5b600882815481106107b4576107b3612bb9565b5b905f5260205f2001549050919050565b5f8060025f8481526020019081526020015f205f9054906101000a900473ffffffffffffffffffffffffffffffffffffffff1690505f73ffffffffffffffffffffffffffffffffffffffff168173ffffffffffffffffffffffffffffffffffffffff1603610867576040517f08c379a000000000000000000000000000000000000000000000000000000000815260040161085e90612c56565b60405180910390fd5b80915050919050565b5f8073ffffffffffffffffffffffffffffffffffffffff168273ffffffffffffffffffffffffffffffffffffffff16036108df576040517f08c379a00000000000000000000000000000000000000000000000000000000081526004016108d690612ce4565b60405180910390fd5b60035f8373ffffffffffffffffffffffffffffffffffffffff1673ffffffffffffffffffffffffffffffffffffffff1681526020019081526020015f20549050919050565b61092c610dfe565b73ffffffffffffffffffffffffffffffffffffffff1661094a6109ab565b73ffffffffffffffffffffffffffffffffffffffff16146109a0576040517f08c379a000000000000000000000000000000000000000000000000000000000815260040161099790612d4c565b60405180910390fd5b6109a95f6111f2565b565b5f600b5f9054906101000a900473ffffffffffffffffffffffffffffffffffffffff16905090565b6060600180546109e290612835565b80601f0160208091040260200160405190810160405280929190818152602001828054610a0e90612835565b8015610a595780601f10610a3057610100808354040283529160200191610a59565b820191905f5260205f20905b815481529060010190602001808311610a3c57829003601f168201915b5050505050905090565b610a75610a6e610dfe565b83836112b5565b5050565b610a8a610a84610dfe565b83610ebb565b610ac9576040517f08c379a0000000000000000000000000000000000000000000000000000000008152600401610ac090612a7f565b60405180910390fd5b610ad58484848461141c565b50505050565b6060610ae682611478565b9050919050565b610af5610dfe565b73ffffffffffffffffffffffffffffffffffffffff16610b136109ab565b73ffffffffffffffffffffffffffffffffffffffff1614610b69576040517f08c379a0000000000000000000000000000000000000000000000000000000008152600401610b6090612d4c565b60405180910390fd5b5f610b74600c6115c1565b9050610b80600c6115cd565b610b8a83826115e1565b610b9481836115fe565b505050565b5f60055f8473ffffffffffffffffffffffffffffffffffffffff1673ffffffffffffffffffffffffffffffffffffffff1681526020019081526020015f205f8373ffffffffffffffffffffffffffffffffffffffff1673ffffffffffffffffffffffffffffffffffffffff1681526020019081526020015f205f9054906101000a900460ff16905092915050565b610c2f610dfe565b73ffffffffffffffffffffffffffffffffffffffff16610c4d6109ab565b73ffffffffffffffffffffffffffffffffffffffff1614610ca3576040517f08c379a0000000000000000000000000000000000000000000000000000000008152600401610c9a90612d4c565b60405180910390fd5b5f73ffffffffffffffffffffffffffffffffffffffff168173ffffffffffffffffffffffffffffffffffffffff1603610d11576040517f08c379a0000000000000000000000000000000000000000000000000000000008152600401610d0890612dda565b60405180910390fd5b610d1a816111f2565b50565b5f7f780e9d63000000000000000000000000000000000000000000000000000000007bffffffffffffffffffffffffffffffffffffffffffffffffffffffff1916827bffffffffffffffffffffffffffffffffffffffffffffffffffffffff19161480610d8f5750610d8e82611669565b5b9050919050565b5f8073ffffffffffffffffffffffffffffffffffffffff1660025f8481526020019081526020015f205f9054906101000a900473ffffffffffffffffffffffffffffffffffffffff1673ffffffffffffffffffffffffffffffffffffffff1614159050919050565b5f33905090565b8160045f8381526020019081526020015f205f6101000a81548173ffffffffffffffffffffffffffffffffffffffff021916908373ffffffffffffffffffffffffffffffffffffffff160217905550808273ffffffffffffffffffffffffffffffffffffffff16610e75836107c4565b73ffffffffffffffffffffffffffffffffffffffff167f8c5be1e5ebec7d5bd14f71427d1e84f3dd0314c0f7b2291e5b200ac8c7c3b92560405160405180910390a45050565b5f610ec582610d96565b610f04576040517f08c379a0000000000000000000000000000000000000000000000000000000008152600401610efb90612e68565b60405180910390fd5b5f610f0e836107c4565b90508073ffffffffffffffffffffffffffffffffffffffff168473ffffffffffffffffffffffffffffffffffffffff161480610f505750610f4f8185610b99565b5b80610f8e57508373ffffffffffffffffffffffffffffffffffffffff16610f7684610494565b73ffffffffffffffffffffffffffffffffffffffff16145b91505092915050565b8273ffffffffffffffffffffffffffffffffffffffff16610fb7826107c4565b73ffffffffffffffffffffffffffffffffffffffff161461100d576040517f08c379a000000000000000000000000000000000000000000000000000000000815260040161100490612ef6565b60405180910390fd5b5f73ffffffffffffffffffffffffffffffffffffffff168273ffffffffffffffffffffffffffffffffffffffff160361107b576040517f08c379a000000000000000000000000000000000000000000000000000000000815260040161107290612f84565b60405180910390fd5b61108683838361174a565b6110905f82610e05565b600160035f8573ffffffffffffffffffffffffffffffffffffffff1673ffffffffffffffffffffffffffffffffffffffff1681526020019081526020015f205f8282546110dd9190612fcf565b92505081905550600160035f8473ffffffffffffffffffffffffffffffffffffffff1673ffffffffffffffffffffffffffffffffffffffff1681526020019081526020015f205f8282546111319190613002565b925050819055508160025f8381526020019081526020015f205f6101000a81548173ffffffffffffffffffffffffffffffffffffffff021916908373ffffffffffffffffffffffffffffffffffffffff160217905550808273ffffffffffffffffffffffffffffffffffffffff168473ffffffffffffffffffffffffffffffffffffffff167fddf252ad1be2c89b69c2b068fc378daa952ba7f163c4a11628f55a4df523b3ef60405160405180910390a46111ed83838361175a565b505050565b5f600b5f9054906101000a900473ffffffffffffffffffffffffffffffffffffffff16905081600b5f6101000a81548173ffffffffffffffffffffffffffffffffffffffff021916908373ffffffffffffffffffffffffffffffffffffffff1602179055508173ffffffffffffffffffffffffffffffffffffffff168173ffffffffffffffffffffffffffffffffffffffff167f8be0079c531659141344cd1fd0a4f28419497f9722a3daafe3b4186f6b6457e060405160405180910390a35050565b8173ffffffffffffffffffffffffffffffffffffffff168373ffffffffffffffffffffffffffffffffffffffff1603611323576040517f08c379a000000000000000000000000000000000000000000000000000000000815260040161131a9061307f565b60405180910390fd5b8060055f8573ffffffffffffffffffffffffffffffffffffffff1673ffffffffffffffffffffffffffffffffffffffff1681526020019081526020015f205f8473ffffffffffffffffffffffffffffffffffffffff1673ffffffffffffffffffffffffffffffffffffffff1681526020019081526020015f205f6101000a81548160ff0219169083151502179055508173ffffffffffffffffffffffffffffffffffffffff168373ffffffffffffffffffffffffffffffffffffffff167f17307eab39ab6107e8899845ad3d59bd9653f200f220920489ca2b5937696c318360405161140f919061223a565b60405180910390a3505050565b611427848484610f97565b6114338484848461175f565b611472576040517f08c379a00000000000000000000000000000000000000000000000000000000081526004016114699061310d565b60405180910390fd5b50505050565b606061148382610d96565b6114c2576040517f08c379a00000000000000000000000000000000000000000000000000000000081526004016114b99061319b565b60405180910390fd5b5f600a5f8481526020019081526020015f2080546114df90612835565b80601f016020809104026020016040519081016040528092919081815260200182805461150b90612835565b80156115565780601f1061152d57610100808354040283529160200191611556565b820191905f5260205f20905b81548152906001019060200180831161153957829003601f168201915b505050505090505f6115666118e1565b90505f81510361157a5781925050506115bc565b5f825111156115ae5780826040516020016115969291906131f3565b604051602081830303815290604052925050506115bc565b6115b7846118f7565b925050505b919050565b5f815f01549050919050565b6001815f015f828254019250508190555050565b6115fa828260405180602001604052805f81525061199b565b5050565b61160782610d96565b611646576040517f08c379a000000000000000000000000000000000000000000000000000000000815260040161163d90613286565b60405180910390fd5b80600a5f8481526020019081526020015f2090816116649190613441565b505050565b5f7f80ac58cd000000000000000000000000000000000000000000000000000000007bffffffffffffffffffffffffffffffffffffffffffffffffffffffff1916827bffffffffffffffffffffffffffffffffffffffffffffffffffffffff1916148061173357507f5b5e139f000000000000000000000000000000000000000000000000000000007bffffffffffffffffffffffffffffffffffffffffffffffffffffffff1916827bffffffffffffffffffffffffffffffffffffffffffffffffffffffff1916145b806117435750611742826119f5565b5b9050919050565b611755838383611a5e565b505050565b505050565b5f61177f8473ffffffffffffffffffffffffffffffffffffffff16611b6e565b156118d4578373ffffffffffffffffffffffffffffffffffffffff1663150b7a026117a8610dfe565b8786866040518563ffffffff1660e01b81526004016117ca9493929190613562565b6020604051808303815f875af192505050801561180557506040513d601f19601f8201168201806040525081019061180291906135c0565b60015b611884573d805f8114611833576040519150601f19603f3d011682016040523d82523d5f602084013e611838565b606091505b505f81510361187c576040517f08c379a00000000000000000000000000000000000000000000000000000000081526004016118739061310d565b60405180910390fd5b805181602001fd5b63150b7a0260e01b7bffffffffffffffffffffffffffffffffffffffffffffffffffffffff1916817bffffffffffffffffffffffffffffffffffffffffffffffffffffffff1916149150506118d9565b600190505b949350505050565b606060405180602001604052805f815250905090565b606061190282610d96565b611941576040517f08c379a00000000000000000000000000000000000000000000000000000000081526004016119389061365b565b60405180910390fd5b5f61194a6118e1565b90505f8151116119685760405180602001604052805f815250611993565b8061197284611b90565b6040516020016119839291906131f3565b6040516020818303038152906040525b915050919050565b6119a58383611ce9565b6119b15f84848461175f565b6119f0576040517f08c379a00000000000000000000000000000000000000000000000000000000081526004016119e79061310d565b60405180910390fd5b505050565b5f7f01ffc9a7000000000000000000000000000000000000000000000000000000007bffffffffffffffffffffffffffffffffffffffffffffffffffffffff1916827bffffffffffffffffffffffffffffffffffffffffffffffffffffffff1916149050919050565b611a69838383611eb8565b5f73ffffffffffffffffffffffffffffffffffffffff168373ffffffffffffffffffffffffffffffffffffffff1603611aaa57611aa581611ebd565b611ae9565b8173ffffffffffffffffffffffffffffffffffffffff168373ffffffffffffffffffffffffffffffffffffffff1614611ae857611ae78382611f01565b5b5b5f73ffffffffffffffffffffffffffffffffffffffff168273ffffffffffffffffffffffffffffffffffffffff1603611b2a57611b2581612057565b611b69565b8273ffffffffffffffffffffffffffffffffffffffff168273ffffffffffffffffffffffffffffffffffffffff1614611b6857611b678282612117565b5b5b505050565b5f808273ffffffffffffffffffffffffffffffffffffffff163b119050919050565b60605f8203611bd6576040518060400160405280600181526020017f30000000000000000000000000000000000000000000000000000000000000008152509050611ce4565b5f8290505f5b5f8214611c05578080611bee90613679565b915050600a82611bfe91906136ed565b9150611bdc565b5f8167ffffffffffffffff811115611c2057611c1f61252e565b5b6040519080825280601f01601f191660200182016040528015611c525781602001600182028036833780820191505090505b5090505b5f8514611cdd57600182611c6a9190612fcf565b9150600a85611c79919061371d565b6030611c859190613002565b60f81b818381518110611c9b57611c9a612bb9565b5b60200101907effffffffffffffffffffffffffffffffffffffffffffffffffffffffffffff191690815f1a905350600a85611cd691906136ed565b9450611c56565b8093505050505b919050565b5f73ffffffffffffffffffffffffffffffffffffffff168273ffffffffffffffffffffffffffffffffffffffff1603611d57576040517f08c379a0000000000000000000000000000000000000000000000000000000008152600401611d4e90613797565b60405180910390fd5b611d6081610d96565b15611da0576040517f08c379a0000000000000000000000000000000000000000000000000000000008152600401611d97906137ff565b60405180910390fd5b611dab5f838361174a565b600160035f8473ffffffffffffffffffffffffffffffffffffffff1673ffffffffffffffffffffffffffffffffffffffff1681526020019081526020015f205f828254611df89190613002565b925050819055508160025f8381526020019081526020015f205f6101000a81548173ffffffffffffffffffffffffffffffffffffffff021916908373ffffffffffffffffffffffffffffffffffffffff160217905550808273ffffffffffffffffffffffffffffffffffffffff165f73ffffffffffffffffffffffffffffffffffffffff167fddf252ad1be2c89b69c2b068fc378daa952ba7f163c4a11628f55a4df523b3ef60405160405180910390a4611eb45f838361175a565b5050565b505050565b60088054905060095f8381526020019081526020015f2081905550600881908060018154018082558091505060019003905f5260205f20015f909190919091505550565b5f6001611f0d84610870565b611f179190612fcf565b90505f60075f8481526020019081526020015f20549050818114611fee575f60065f8673ffffffffffffffffffffffffffffffffffffffff1673ffffffffffffffffffffffffffffffffffffffff1681526020019081526020015f205f8481526020019081526020015f205490508060065f8773ffffffffffffffffffffffffffffffffffffffff1673ffffffffffffffffffffffffffffffffffffffff1681526020019081526020015f205f8481526020019081526020015f20819055508160075f8381526020019081526020015f2081905550505b60075f8481526020019081526020015f205f905560065f8573ffffffffffffffffffffffffffffffffffffffff1673ffffffffffffffffffffffffffffffffffffffff1681526020019081526020015f205f8381526020019081526020015f205f905550505050565b5f600160088054905061206a9190612fcf565b90505f60095f8481526020019081526020015f205490505f6008838154811061209657612095612bb9565b5b905f5260205f200154905080600883815481106120b6576120b5612bb9565b5b905f5260205f2001819055508160095f8381526020019081526020015f208190555060095f8581526020019081526020015f205f905560088054806120fe576120fd61381d565b5b600190038181905f5260205f20015f9055905550505050565b5f61212183610870565b90508160065f8573ffffffffffffffffffffffffffffffffffffffff1673ffffffffffffffffffffffffffffffffffffffff1681526020019081526020015f205f8381526020019081526020015f20819055508060075f8481526020019081526020015f2081905550505050565b5f604051905090565b5f80fd5b5f80fd5b5f7fffffffff0000000000000000000000000000000000000000000000000000000082169050919050565b6121d4816121a0565b81146121de575f80fd5b50565b5f813590506121ef816121cb565b92915050565b5f6020828403121561220a57612209612198565b5b5f612217848285016121e1565b91505092915050565b5f8115159050919050565b61223481612220565b82525050565b5f60208201905061224d5f83018461222b565b92915050565b5f81519050919050565b5f82825260208201905092915050565b5f5b8381101561228a57808201518184015260208101905061226f565b5f8484015250505050565b5f601f19601f8301169050919050565b5f6122af82612253565b6122b9818561225d565b93506122c981856020860161226d565b6122d281612295565b840191505092915050565b5f6020820190508181035f8301526122f581846122a5565b905092915050565b5f819050919050565b61230f816122fd565b8114612319575f80fd5b50565b5f8135905061232a81612306565b92915050565b5f6020828403121561234557612344612198565b5b5f6123528482850161231c565b91505092915050565b5f73ffffffffffffffffffffffffffffffffffffffff82169050919050565b5f6123848261235b565b9050919050565b6123948161237a565b82525050565b5f6020820190506123ad5f83018461238b565b92915050565b6123bc8161237a565b81146123c6575f80fd5b50565b5f813590506123d7816123b3565b92915050565b5f80604083850312156123f3576123f2612198565b5b5f612400858286016123c9565b92505060206124118582860161231c565b9150509250929050565b612424816122fd565b82525050565b5f60208201905061243d5f83018461241b565b92915050565b5f805f6060848603121561245a57612459612198565b5b5f612467868287016123c9565b9350506020612478868287016123c9565b92505060406124898682870161231c565b9150509250925092565b5f602082840312156124a8576124a7612198565b5b5f6124b5848285016123c9565b91505092915050565b6124c781612220565b81146124d1575f80fd5b50565b5f813590506124e2816124be565b92915050565b5f80604083850312156124fe576124fd612198565b5b5f61250b858286016123c9565b925050602061251c858286016124d4565b9150509250929050565b5f80fd5b5f80fd5b7f4e487b71000000000000000000000000000000000000000000000000000000005f52604160045260245ffd5b61256482612295565b810181811067ffffffffffffffff821117156125835761258261252e565b5b80604052505050565b5f61259561218f565b90506125a1828261255b565b919050565b5f67ffffffffffffffff8211156125c0576125bf61252e565b5b6125c982612295565b9050602081019050919050565b828183375f83830152505050565b5f6125f66125f1846125a6565b61258c565b9050828152602081018484840111156126125761261161252a565b5b61261d8482856125d6565b509392505050565b5f82601f83011261263957612638612526565b5b81356126498482602086016125e4565b91505092915050565b5f805f806080858703121561266a57612669612198565b5b5f612677878288016123c9565b9450506020612688878288016123c9565b93505060406126998782880161231c565b925050606085013567ffffffffffffffff8111156126ba576126b961219c565b5b6126c687828801612625565b91505092959194509250565b5f67ffffffffffffffff8211156126ec576126eb61252e565b5b6126f582612295565b9050602081019050919050565b5f61271461270f846126d2565b61258c565b9050828152602081018484840111156127305761272f61252a565b5b61273b8482856125d6565b509392505050565b5f82601f83011261275757612756612526565b5b8135612767848260208601612702565b91505092915050565b5f806040838503121561278657612785612198565b5b5f612793858286016123c9565b925050602083013567ffffffffffffffff8111156127b4576127b361219c565b5b6127c085828601612743565b9150509250929050565b5f80604083850312156127e0576127df612198565b5b5f6127ed858286016123c9565b92505060206127fe858286016123c9565b9150509250929050565b7f4e487b71000000000000000000000000000000000000000000000000000000005f52602260045260245ffd5b5f600282049050600182168061284c57607f821691505b60208210810361285f5761285e612808565b5b50919050565b7f4552433732313a20617070726f76656420717565727920666f72206e6f6e65785f8201527f697374656e7420746f6b656e0000000000000000000000000000000000000000602082015250565b5f6128bf602c8361225d565b91506128ca82612865565b604082019050919050565b5f6020820190508181035f8301526128ec816128b3565b9050919050565b7f4552433732313a20617070726f76616c20746f2063757272656e74206f776e655f8201527f7200000000000000000000000000000000000000000000000000000000000000602082015250565b5f61294d60218361225d565b9150612958826128f3565b604082019050919050565b5f6020820190508181035f83015261297a81612941565b9050919050565b7f4552433732313a20617070726f76652063616c6c6572206973206e6f74206f775f8201527f6e6572206e6f7220617070726f76656420666f7220616c6c0000000000000000602082015250565b5f6129db60388361225d565b91506129e682612981565b604082019050919050565b5f6020820190508181035f830152612a08816129cf565b9050919050565b7f4552433732313a207472616e736665722063616c6c6572206973206e6f74206f5f8201527f776e6572206e6f7220617070726f766564000000000000000000000000000000602082015250565b5f612a6960318361225d565b9150612a7482612a0f565b604082019050919050565b5f6020820190508181035f830152612a9681612a5d565b9050919050565b7f455243373231456e756d657261626c653a206f776e657220696e646578206f755f8201527f74206f6620626f756e6473000000000000000000000000000000000000000000602082015250565b5f612af7602b8361225d565b9150612b0282612a9d565b604082019050919050565b5f6020820190508181035f830152612b2481612aeb565b9050919050565b7f455243373231456e756d657261626c653a20676c6f62616c20696e646578206f5f8201527f7574206f6620626f756e64730000000000000000000000000000000000000000602082015250565b5f612b85602c8361225d565b9150612b9082612b2b565b604082019050919050565b5f6020820190508181035f830152612bb281612b79565b9050919050565b7f4e487b71000000000000000000000000000000000000000000000000000000005f52603260045260245ffd5b7f4552433732313a206f776e657220717565727920666f72206e6f6e65786973745f8201527f656e7420746f6b656e0000000000000000000000000000000000000000000000602082015250565b5f612c4060298361225d565b9150612c4b82612be6565b604082019050919050565b5f6020820190508181035f830152612c6d81612c34565b9050919050565b7f4552433732313a2062616c616e636520717565727920666f7220746865207a655f8201527f726f206164647265737300000000000000000000000000000000000000000000602082015250565b5f612cce602a8361225d565b9150612cd982612c74565b604082019050919050565b5f6020820190508181035f830152612cfb81612cc2565b9050919050565b7f4f776e61626c653a2063616c6c6572206973206e6f7420746865206f776e65725f82015250565b5f612d3660208361225d565b9150612d4182612d02565b602082019050919050565b5f6020820190508181035f830152612d6381612d2a565b9050919050565b7f4f776e61626c653a206e6577206f776e657220697320746865207a65726f20615f8201527f6464726573730000000000000000000000000000000000000000000000000000602082015250565b5f612dc460268361225d565b9150612dcf82612d6a565b604082019050919050565b5f6020820190508181035f830152612df181612db8565b9050919050565b7f4552433732313a206f70657261746f7220717565727920666f72206e6f6e65785f8201527f697374656e7420746f6b656e0000000000000000000000000000000000000000602082015250565b5f612e52602c8361225d565b9150612e5d82612df8565b604082019050919050565b5f6020820190508181035f830152612e7f81612e46565b9050919050565b7f4552433732313a207472616e736665722066726f6d20696e636f7272656374205f8201527f6f776e6572000000000000000000000000000000000000000000000000000000602082015250565b5f612ee060258361225d565b9150612eeb82612e86565b604082019050919050565b5f6020820190508181035f830152612f0d81612ed4565b9050919050565b7f4552433732313a207472616e7366657220746f20746865207a65726f206164645f8201527f7265737300000000000000000000000000000000000000000000000000000000602082015250565b5f612f6e60248361225d565b9150612f7982612f14565b604082019050919050565b5f6020820190508181035f830152612f9b81612f62565b9050919050565b7f4e487b71000000000000000000000000000000000000000000000000000000005f52601160045260245ffd5b5f612fd9826122fd565b9150612fe4836122fd565b9250828203905081811115612ffc57612ffb612fa2565b5b92915050565b5f61300c826122fd565b9150613017836122fd565b925082820190508082111561302f5761302e612fa2565b5b92915050565b7f4552433732313a20617070726f766520746f2063616c6c6572000000000000005f82015250565b5f61306960198361225d565b915061307482613035565b602082019050919050565b5f6020820190508181035f8301526130968161305d565b9050919050565b7f4552433732313a207472616e7366657220746f206e6f6e2045524337323152655f8201527f63656976657220696d706c656d656e7465720000000000000000000000000000602082015250565b5f6130f760328361225d565b91506131028261309d565b604082019050919050565b5f6020820190508181035f830152613124816130eb565b9050919050565b7f45524337323155524953746f726167653a2055524920717565727920666f72205f8201527f6e6f6e6578697374656e7420746f6b656e000000000000000000000000000000602082015250565b5f61318560318361225d565b91506131908261312b565b604082019050919050565b5f6020820190508181035f8301526131b281613179565b9050919050565b5f81905092915050565b5f6131cd82612253565b6131d781856131b9565b93506131e781856020860161226d565b80840191505092915050565b5f6131fe82856131c3565b915061320a82846131c3565b91508190509392505050565b7f45524337323155524953746f726167653a2055524920736574206f66206e6f6e5f8201527f6578697374656e7420746f6b656e000000000000000000000000000000000000602082015250565b5f613270602e8361225d565b915061327b82613216565b604082019050919050565b5f6020820190508181035f83015261329d81613264565b9050919050565b5f819050815f5260205f209050919050565b5f6020601f8301049050919050565b5f82821b905092915050565b5f600883026133007fffffffffffffffffffffffffffffffffffffffffffffffffffffffffffffffff826132c5565b61330a86836132c5565b95508019841693508086168417925050509392505050565b5f819050919050565b5f61334561334061333b846122fd565b613322565b6122fd565b9050919050565b5f819050919050565b61335e8361332b565b61337261336a8261334c565b8484546132d1565b825550505050565b5f90565b61338661337a565b613391818484613355565b505050565b5b818110156133b4576133a95f8261337e565b600181019050613397565b5050565b601f8211156133f9576133ca816132a4565b6133d3846132b6565b810160208510156133e2578190505b6133f66133ee856132b6565b830182613396565b50505b505050565b5f82821c905092915050565b5f6134195f19846008026133fe565b1980831691505092915050565b5f613431838361340a565b9150826002028217905092915050565b61344a82612253565b67ffffffffffffffff8111156134635761346261252e565b5b61346d8254612835565b6134788282856133b8565b5f60209050601f8311600181146134a9575f8415613497578287015190505b6134a18582613426565b865550613508565b601f1984166134b7866132a4565b5f5b828110156134de578489015182556001820191506020850194506020810190506134b9565b868310156134fb57848901516134f7601f89168261340a565b8355505b6001600288020188555050505b505050505050565b5f81519050919050565b5f82825260208201905092915050565b5f61353482613510565b61353e818561351a565b935061354e81856020860161226d565b61355781612295565b840191505092915050565b5f6080820190506135755f83018761238b565b613582602083018661238b565b61358f604083018561241b565b81810360608301526135a1818461352a565b905095945050505050565b5f815190506135ba816121cb565b92915050565b5f602082840312156135d5576135d4612198565b5b5f6135e2848285016135ac565b91505092915050565b7f4552433732314d657461646174613a2055524920717565727920666f72206e6f5f8201527f6e6578697374656e7420746f6b656e0000000000000000000000000000000000602082015250565b5f613645602f8361225d565b9150613650826135eb565b604082019050919050565b5f6020820190508181035f83015261367281613639565b9050919050565b5f613683826122fd565b91507fffffffffffffffffffffffffffffffffffffffffffffffffffffffffffffffff82036136b5576136b4612fa2565b5b600182019050919050565b7f4e487b71000000000000000000000000000000000000000000000000000000005f52601260045260245ffd5b5f6136f7826122fd565b9150613702836122fd565b925082613712576137116136c0565b5b828204905092915050565b5f613727826122fd565b9150613732836122fd565b925082613742576137416136c0565b5b828206905092915050565b7f4552433732313a206d696e7420746f20746865207a65726f20616464726573735f82015250565b5f61378160208361225d565b915061378c8261374d565b602082019050919050565b5f6020820190508181035f8301526137ae81613775565b9050919050565b7f4552433732313a20746f6b656e20616c7265616479206d696e746564000000005f82015250565b5f6137e9601c8361225d565b91506137f4826137b5565b602082019050919050565b5f6020820190508181035f830152613816816137dd565b9050919050565b7f4e487b71000000000000000000000000000000000000000000000000000000005f52603160045260245ffdfea26469706673582212202525258c1de5e1bb5a48934e552540212b38297fa333b44b64d7d4e9c3c6032564736f6c63430008150033",
  "immutableReferences": {},
  "source": "// SPDX-License-Identifier: MIT\npragma solidity ^0.8.0;\n\nimport \"@openzeppelin/contracts/token/ERC721/ERC721.sol\";\nimport \"@openzeppelin/contracts/token/ERC721/extensions/ERC721Enumerable.sol\";\nimport \"@openzeppelin/contracts/token/ERC721/extensions/ERC721URIStorage.sol\";\nimport \"@openzeppelin/contracts/access/Ownable.sol\";\nimport \"@openzeppelin/contracts/utils/Counters.sol\";\n\ncontract MyNFT is ERC721, ERC721Enumerable, ERC721URIStorage, Ownable {\n    using Counters for Counters.Counter;\n\n    Counters.Counter private _tokenIdCounter;\n\n    constructor() ERC721(\"MyNFT\", \"MNFT\") {}\n\n    function safeMint(address to, string memory uri) public onlyOwner {\n        uint256 tokenId = _tokenIdCounter.current();\n        _tokenIdCounter.increment();\n        _safeMint(to, tokenId);\n        _setTokenURI(tokenId, uri);\n    }\n\n    // The following functions are overrides required by Solidity.\n\n    function _beforeTokenTransfer(address from, address to, uint256 tokenId)\n        internal\n        override(ERC721, ERC721Enumerable)\n    {\n        super._beforeTokenTransfer(from, to, tokenId);\n    }\n\n    function _burn(uint256 tokenId) internal override(ERC721, ERC721URIStorage) {\n        super._burn(tokenId);\n    }\n\n    function tokenURI(uint256 tokenId)\n        public\n        view\n        override(ERC721, ERC721URIStorage)\n        returns (string memory)\n    {\n        return super.tokenURI(tokenId);\n    }\n\n    function supportsInterface(bytes4 interfaceId)\n        public\n        view\n        override(ERC721, ERC721Enumerable)\n        returns (bool)\n    {\n        return super.supportsInterface(interfaceId);\n    }\n}\n",
  "sourcePath": "/Users/saileshpolavarapu/Desktop/truffle-project/contracts/MyNFT.sol",
  "compiler": {
    "name": "solc",
    "version": "0.8.21+commit.d9974bed.Emscripten.clang"
  },
  "schemaVersion": "3.4.16",
  "updatedAt": "2023-12-15T22:34:03.215Z",
  "networkType": "ethereum",
  "devdoc": {
    "events": {
      "Approval(address,address,uint256)": {
        "details": "Emitted when `owner` enables `approved` to manage the `tokenId` token."
      },
      "ApprovalForAll(address,address,bool)": {
        "details": "Emitted when `owner` enables or disables (`approved`) `operator` to manage all of its assets."
      },
      "Transfer(address,address,uint256)": {
        "details": "Emitted when `tokenId` token is transferred from `from` to `to`."
      }
    },
    "kind": "dev",
    "methods": {
      "approve(address,uint256)": {
        "details": "See {IERC721-approve}."
      },
      "balanceOf(address)": {
        "details": "See {IERC721-balanceOf}."
      },
      "getApproved(uint256)": {
        "details": "See {IERC721-getApproved}."
      },
      "isApprovedForAll(address,address)": {
        "details": "See {IERC721-isApprovedForAll}."
      },
      "name()": {
        "details": "See {IERC721Metadata-name}."
      },
      "owner()": {
        "details": "Returns the address of the current owner."
      },
      "ownerOf(uint256)": {
        "details": "See {IERC721-ownerOf}."
      },
      "renounceOwnership()": {
        "details": "Leaves the contract without owner. It will not be possible to call `onlyOwner` functions anymore. Can only be called by the current owner. NOTE: Renouncing ownership will leave the contract without an owner, thereby removing any functionality that is only available to the owner."
      },
      "safeTransferFrom(address,address,uint256)": {
        "details": "See {IERC721-safeTransferFrom}."
      },
      "safeTransferFrom(address,address,uint256,bytes)": {
        "details": "See {IERC721-safeTransferFrom}."
      },
      "setApprovalForAll(address,bool)": {
        "details": "See {IERC721-setApprovalForAll}."
      },
      "symbol()": {
        "details": "See {IERC721Metadata-symbol}."
      },
      "tokenByIndex(uint256)": {
        "details": "See {IERC721Enumerable-tokenByIndex}."
      },
      "tokenOfOwnerByIndex(address,uint256)": {
        "details": "See {IERC721Enumerable-tokenOfOwnerByIndex}."
      },
      "totalSupply()": {
        "details": "See {IERC721Enumerable-totalSupply}."
      },
      "transferFrom(address,address,uint256)": {
        "details": "See {IERC721-transferFrom}."
      },
      "transferOwnership(address)": {
        "details": "Transfers ownership of the contract to a new account (`newOwner`). Can only be called by the current owner."
      }
    },
    "version": 1
  },
  "userdoc": {
    "kind": "user",
    "methods": {},
    "version": 1
  }
}